{
  "contractName": "EthPriceOracle",
  "abi": [
    {
      "anonymous": false,
      "inputs": [
        {
          "indexed": false,
          "internalType": "address",
          "name": "callerAddress",
          "type": "address"
        },
        {
          "indexed": false,
          "internalType": "uint256",
          "name": "id",
          "type": "uint256"
        }
      ],
      "name": "GetLatestEthPriceEvent",
      "type": "event"
    },
    {
      "anonymous": false,
      "inputs": [
        {
          "indexed": true,
          "internalType": "bytes32",
          "name": "role",
          "type": "bytes32"
        },
        {
          "indexed": true,
          "internalType": "bytes32",
          "name": "previousAdminRole",
          "type": "bytes32"
        },
        {
          "indexed": true,
          "internalType": "bytes32",
          "name": "newAdminRole",
          "type": "bytes32"
        }
      ],
      "name": "RoleAdminChanged",
      "type": "event"
    },
    {
      "anonymous": false,
      "inputs": [
        {
          "indexed": true,
          "internalType": "bytes32",
          "name": "role",
          "type": "bytes32"
        },
        {
          "indexed": true,
          "internalType": "address",
          "name": "account",
          "type": "address"
        },
        {
          "indexed": true,
          "internalType": "address",
          "name": "sender",
          "type": "address"
        }
      ],
      "name": "RoleGranted",
      "type": "event"
    },
    {
      "anonymous": false,
      "inputs": [
        {
          "indexed": true,
          "internalType": "bytes32",
          "name": "role",
          "type": "bytes32"
        },
        {
          "indexed": true,
          "internalType": "address",
          "name": "account",
          "type": "address"
        },
        {
          "indexed": true,
          "internalType": "address",
          "name": "sender",
          "type": "address"
        }
      ],
      "name": "RoleRevoked",
      "type": "event"
    },
    {
      "anonymous": false,
      "inputs": [
        {
          "indexed": false,
          "internalType": "uint256",
          "name": "ethPrice",
          "type": "uint256"
        },
        {
          "indexed": false,
          "internalType": "address",
          "name": "callerAddress",
          "type": "address"
        }
      ],
      "name": "SetLatestEthPriceEvent",
      "type": "event"
    },
    {
      "inputs": [],
      "name": "DEFAULT_ADMIN_ROLE",
      "outputs": [
        {
          "internalType": "bytes32",
          "name": "",
          "type": "bytes32"
        }
      ],
      "stateMutability": "view",
      "type": "function",
      "constant": true
    },
    {
      "inputs": [],
      "name": "ORACLES",
      "outputs": [
        {
          "internalType": "bytes32",
          "name": "",
          "type": "bytes32"
        }
      ],
      "stateMutability": "view",
      "type": "function",
      "constant": true
    },
    {
      "inputs": [],
      "name": "OWNERS",
      "outputs": [
        {
          "internalType": "bytes32",
          "name": "",
          "type": "bytes32"
        }
      ],
      "stateMutability": "view",
      "type": "function",
      "constant": true
    },
    {
      "inputs": [
        {
          "internalType": "bytes32",
          "name": "role",
          "type": "bytes32"
        }
      ],
      "name": "getRoleAdmin",
      "outputs": [
        {
          "internalType": "bytes32",
          "name": "",
          "type": "bytes32"
        }
      ],
      "stateMutability": "view",
      "type": "function",
      "constant": true
    },
    {
      "inputs": [
        {
          "internalType": "bytes32",
          "name": "role",
          "type": "bytes32"
        },
        {
          "internalType": "address",
          "name": "account",
          "type": "address"
        }
      ],
      "name": "grantRole",
      "outputs": [],
      "stateMutability": "nonpayable",
      "type": "function"
    },
    {
      "inputs": [
        {
          "internalType": "bytes32",
          "name": "role",
          "type": "bytes32"
        },
        {
          "internalType": "address",
          "name": "account",
          "type": "address"
        }
      ],
      "name": "hasRole",
      "outputs": [
        {
          "internalType": "bool",
          "name": "",
          "type": "bool"
        }
      ],
      "stateMutability": "view",
      "type": "function",
      "constant": true
    },
    {
      "inputs": [
        {
          "internalType": "bytes32",
          "name": "role",
          "type": "bytes32"
        },
        {
          "internalType": "address",
          "name": "account",
          "type": "address"
        }
      ],
      "name": "renounceRole",
      "outputs": [],
      "stateMutability": "nonpayable",
      "type": "function"
    },
    {
      "inputs": [
        {
          "internalType": "bytes32",
          "name": "role",
          "type": "bytes32"
        },
        {
          "internalType": "address",
          "name": "account",
          "type": "address"
        }
      ],
      "name": "revokeRole",
      "outputs": [],
      "stateMutability": "nonpayable",
      "type": "function"
    },
    {
      "inputs": [
        {
          "internalType": "bytes4",
          "name": "interfaceId",
          "type": "bytes4"
        }
      ],
      "name": "supportsInterface",
      "outputs": [
        {
          "internalType": "bool",
          "name": "",
          "type": "bool"
        }
      ],
      "stateMutability": "view",
      "type": "function",
      "constant": true
    },
    {
      "inputs": [],
      "name": "getLatestEthPrice",
      "outputs": [
        {
          "internalType": "uint256",
          "name": "",
          "type": "uint256"
        }
      ],
      "stateMutability": "nonpayable",
      "type": "function"
    },
    {
      "inputs": [
        {
          "internalType": "uint256",
          "name": "_ethPrice",
          "type": "uint256"
        },
        {
          "internalType": "address",
          "name": "_callerAddress",
          "type": "address"
        },
        {
          "internalType": "uint256",
          "name": "_id",
          "type": "uint256"
        }
      ],
      "name": "setLatestEthPrice",
      "outputs": [],
      "stateMutability": "nonpayable",
      "type": "function"
    }
  ],
  "bytecode": "0x608060405260006001556103e86002556000600355600060045534801561002557600080fd5b506114d0806100356000396000f3fe608060405234801561001057600080fd5b50600436106100a95760003560e01c806336568abe1161007157806336568abe1461016657806391d1485414610182578063a217fddf146101b2578063c68c1091146101d0578063cf642f1f146101ee578063d547741f1461020a576100a9565b806301ffc9a7146100ae578063248a9ca3146100de5780632a9078d61461010e5780632f2ff15d1461012c57806330c0b9ec14610148575b600080fd5b6100c860048036038101906100c39190610ccb565b610226565b6040516100d59190611043565b60405180910390f35b6100f860048036038101906100f39190610c66565b6102a0565b604051610105919061105e565b60405180910390f35b6101166102bf565b604051610123919061105e565b60405180910390f35b61014660048036038101906101419190610c8f565b6102e3565b005b61015061030c565b60405161015d91906110fb565b60405180910390f35b610180600480360381019061017b9190610c8f565b6103d3565b005b61019c60048036038101906101979190610c8f565b610456565b6040516101a99190611043565b60405180910390f35b6101ba6104c0565b6040516101c7919061105e565b60405180910390f35b6101d86104c7565b6040516101e5919061105e565b60405180910390f35b61020860048036038101906102039190610cf4565b6104eb565b005b610224600480360381019061021f9190610c8f565b61061f565b005b60007f7965db0b000000000000000000000000000000000000000000000000000000007bffffffffffffffffffffffffffffffffffffffffffffffffffffffff1916827bffffffffffffffffffffffffffffffffffffffffffffffffffffffff19161480610299575061029882610648565b5b9050919050565b6000806000838152602001908152602001600020600101549050919050565b7f442e70e83397770c9f1520820e5555e76d9d4f0a415d9c72548c8daac6944e1f81565b6102ec826102a0565b6102fd816102f86106b2565b6106ba565b6103078383610757565b505050565b6000600160008154809291906103219061131a565b91905055506000600254423360015460405160200161034293929190610fdd565b6040516020818303038152906040528051906020012060001c6103659190611391565b905060016005600083815260200190815260200160002060006101000a81548160ff0219169083151502179055507f3d50a0c24e97813f35595d2f1f37dbf421d5e97f37abd4e222853e9b9c82c8d533826040516103c492919061101a565b60405180910390a18091505090565b6103db6106b2565b73ffffffffffffffffffffffffffffffffffffffff168173ffffffffffffffffffffffffffffffffffffffff1614610448576040517f08c379a000000000000000000000000000000000000000000000000000000000815260040161043f906110bb565b60405180910390fd5b6104528282610837565b5050565b600080600084815260200190815260200160002060000160008373ffffffffffffffffffffffffffffffffffffffff1673ffffffffffffffffffffffffffffffffffffffff16815260200190815260200160002060009054906101000a900460ff16905092915050565b6000801b81565b7fcd84ef2ca36db89bf10980ad745e905927b5d2a0649a4cc3e39f363eb89c264881565b6005600082815260200190815260200160002060009054906101000a900460ff1661054b576040517f08c379a0000000000000000000000000000000000000000000000000000000008152600401610542906110db565b60405180910390fd5b6005600082815260200190815260200160002060006101000a81549060ff021916905560008290508073ffffffffffffffffffffffffffffffffffffffff1663b5d73ba485846040518363ffffffff1660e01b81526004016105ae92919061113f565b600060405180830381600087803b1580156105c857600080fd5b505af11580156105dc573d6000803e3d6000fd5b505050507f91b860381268a473101de3379abbb70abf7ea6c9d1735cf58b9816479ff3b7278484604051610611929190611116565b60405180910390a150505050565b610628826102a0565b610639816106346106b2565b6106ba565b6106438383610837565b505050565b60007f01ffc9a7000000000000000000000000000000000000000000000000000000007bffffffffffffffffffffffffffffffffffffffffffffffffffffffff1916827bffffffffffffffffffffffffffffffffffffffffffffffffffffffff1916149050919050565b600033905090565b6106c48282610456565b610753576106e98173ffffffffffffffffffffffffffffffffffffffff166014610918565b6106f78360001c6020610918565b604051602001610708929190610fa3565b6040516020818303038152906040526040517f08c379a000000000000000000000000000000000000000000000000000000000815260040161074a9190611079565b60405180910390fd5b5050565b6107618282610456565b61083357600160008084815260200190815260200160002060000160008373ffffffffffffffffffffffffffffffffffffffff1673ffffffffffffffffffffffffffffffffffffffff16815260200190815260200160002060006101000a81548160ff0219169083151502179055506107d86106b2565b73ffffffffffffffffffffffffffffffffffffffff168173ffffffffffffffffffffffffffffffffffffffff16837f2f8788117e7eff1d82e926ec794901d17c78024a50270940304540a733656f0d60405160405180910390a45b5050565b6108418282610456565b1561091457600080600084815260200190815260200160002060000160008373ffffffffffffffffffffffffffffffffffffffff1673ffffffffffffffffffffffffffffffffffffffff16815260200190815260200160002060006101000a81548160ff0219169083151502179055506108b96106b2565b73ffffffffffffffffffffffffffffffffffffffff168173ffffffffffffffffffffffffffffffffffffffff16837ff6391f5c32d9c69d2a47ea670b442974b53935d1edc7fd64eb21e047a839171b60405160405180910390a45b5050565b60606000600283600261092b91906111e5565b610935919061118f565b67ffffffffffffffff811115610974577f4e487b7100000000000000000000000000000000000000000000000000000000600052604160045260246000fd5b6040519080825280601f01601f1916602001820160405280156109a65781602001600182028036833780820191505090505b5090507f300000000000000000000000000000000000000000000000000000000000000081600081518110610a04577f4e487b7100000000000000000000000000000000000000000000000000000000600052603260045260246000fd5b60200101907effffffffffffffffffffffffffffffffffffffffffffffffffffffffffffff1916908160001a9053507f780000000000000000000000000000000000000000000000000000000000000081600181518110610a8e577f4e487b7100000000000000000000000000000000000000000000000000000000600052603260045260246000fd5b60200101907effffffffffffffffffffffffffffffffffffffffffffffffffffffffffffff1916908160001a90535060006001846002610ace91906111e5565b610ad8919061118f565b90505b6001811115610bc4577f3031323334353637383961626364656600000000000000000000000000000000600f861660108110610b40577f4e487b7100000000000000000000000000000000000000000000000000000000600052603260045260246000fd5b1a60f81b828281518110610b7d577f4e487b7100000000000000000000000000000000000000000000000000000000600052603260045260246000fd5b60200101907effffffffffffffffffffffffffffffffffffffffffffffffffffffffffffff1916908160001a905350600485901c945080610bbd906112f0565b9050610adb565b5060008414610c08576040517f08c379a0000000000000000000000000000000000000000000000000000000008152600401610bff9061109b565b60405180910390fd5b8091505092915050565b600081359050610c218161143e565b92915050565b600081359050610c3681611455565b92915050565b600081359050610c4b8161146c565b92915050565b600081359050610c6081611483565b92915050565b600060208284031215610c7857600080fd5b6000610c8684828501610c27565b91505092915050565b60008060408385031215610ca257600080fd5b6000610cb085828601610c27565b9250506020610cc185828601610c12565b9150509250929050565b600060208284031215610cdd57600080fd5b6000610ceb84828501610c3c565b91505092915050565b600080600060608486031215610d0957600080fd5b6000610d1786828701610c51565b9350506020610d2886828701610c12565b9250506040610d3986828701610c51565b9150509250925092565b610d4c8161123f565b82525050565b610d63610d5e8261123f565b611363565b82525050565b610d7281611251565b82525050565b610d818161125d565b82525050565b6000610d9282611168565b610d9c8185611173565b9350610dac8185602086016112bd565b610db581611420565b840191505092915050565b6000610dcb82611168565b610dd58185611184565b9350610de58185602086016112bd565b80840191505092915050565b6000610dfe602083611173565b91507f537472696e67733a20686578206c656e67746820696e73756666696369656e746000830152602082019050919050565b6000610e3e601783611184565b91507f416363657373436f6e74726f6c3a206163636f756e74200000000000000000006000830152601782019050919050565b6000610e7e601183611184565b91507f206973206d697373696e6720726f6c65200000000000000000000000000000006000830152601182019050919050565b6000610ebe602f83611173565b91507f416363657373436f6e74726f6c3a2063616e206f6e6c792072656e6f756e636560008301527f20726f6c657320666f722073656c6600000000000000000000000000000000006020830152604082019050919050565b6000610f24602783611173565b91507f546869732072657175657374206973206e6f7420696e206d792070656e64696e60008301527f67206c6973742e000000000000000000000000000000000000000000000000006020830152604082019050919050565b610f86816112b3565b82525050565b610f9d610f98826112b3565b611387565b82525050565b6000610fae82610e31565b9150610fba8285610dc0565b9150610fc582610e71565b9150610fd18284610dc0565b91508190509392505050565b6000610fe98286610f8c565b602082019150610ff98285610d52565b6014820191506110098284610f8c565b602082019150819050949350505050565b600060408201905061102f6000830185610d43565b61103c6020830184610f7d565b9392505050565b60006020820190506110586000830184610d69565b92915050565b60006020820190506110736000830184610d78565b92915050565b600060208201905081810360008301526110938184610d87565b905092915050565b600060208201905081810360008301526110b481610df1565b9050919050565b600060208201905081810360008301526110d481610eb1565b9050919050565b600060208201905081810360008301526110f481610f17565b9050919050565b60006020820190506111106000830184610f7d565b92915050565b600060408201905061112b6000830185610f7d565b6111386020830184610d43565b9392505050565b60006040820190506111546000830185610f7d565b6111616020830184610f7d565b9392505050565b600081519050919050565b600082825260208201905092915050565b600081905092915050565b600061119a826112b3565b91506111a5836112b3565b9250827fffffffffffffffffffffffffffffffffffffffffffffffffffffffffffffffff038211156111da576111d96113c2565b5b828201905092915050565b60006111f0826112b3565b91506111fb836112b3565b9250817fffffffffffffffffffffffffffffffffffffffffffffffffffffffffffffffff0483118215151615611234576112336113c2565b5b828202905092915050565b600061124a82611293565b9050919050565b60008115159050919050565b6000819050919050565b60007fffffffff0000000000000000000000000000000000000000000000000000000082169050919050565b600073ffffffffffffffffffffffffffffffffffffffff82169050919050565b6000819050919050565b60005b838110156112db5780820151818401526020810190506112c0565b838111156112ea576000848401525b50505050565b60006112fb826112b3565b9150600082141561130f5761130e6113c2565b5b600182039050919050565b6000611325826112b3565b91507fffffffffffffffffffffffffffffffffffffffffffffffffffffffffffffffff821415611358576113576113c2565b5b600182019050919050565b600061136e82611375565b9050919050565b600061138082611431565b9050919050565b6000819050919050565b600061139c826112b3565b91506113a7836112b3565b9250826113b7576113b66113f1565b5b828206905092915050565b7f4e487b7100000000000000000000000000000000000000000000000000000000600052601160045260246000fd5b7f4e487b7100000000000000000000000000000000000000000000000000000000600052601260045260246000fd5b6000601f19601f8301169050919050565b60008160601b9050919050565b6114478161123f565b811461145257600080fd5b50565b61145e8161125d565b811461146957600080fd5b50565b61147581611267565b811461148057600080fd5b50565b61148c816112b3565b811461149757600080fd5b5056fea2646970667358221220b661ae70c76c0146e35a470cfb74d76685e4101486f451b38dd00d2e2ec9696764736f6c63430008000033",
  "immutableReferences": {},
  "source": "// SPDX-License-Identifier: MIT\npragma solidity >=0.4.22 <0.9.0;\nimport \"@openzeppelin/contracts/access/AccessControl.sol\";\nimport \"@openzeppelin/contracts/utils/math/SafeMath.sol\";\nimport \"./CallerContractInterface.sol\";\ncontract EthPriceOracle is AccessControl {\n      bytes32 public constant OWNERS = keccak256(\"OWNERS\");\n    bytes32 public constant ORACLES = keccak256(\"ORACLES\");\n\n    using SafeMath for uint256;\n  uint private randNonce = 0;\n  uint private modulus = 1000;\n      uint private numOracles = 0;\n    uint private THRESHOLD = 0;\n  mapping(uint256=>bool) pendingRequests;\n  event GetLatestEthPriceEvent(address callerAddress, uint id);\n  event SetLatestEthPriceEvent(uint256 ethPrice, address callerAddress);\n  function getLatestEthPrice() public returns (uint256) {\n    randNonce++;\n    uint id = uint(keccak256(abi.encodePacked(block.timestamp, msg.sender, randNonce))) % modulus;\n    pendingRequests[id] = true;\n    emit GetLatestEthPriceEvent(msg.sender, id);\n    return id;\n  }\n  function setLatestEthPrice(uint256 _ethPrice, address _callerAddress,   uint256 _id) public {\n    require(pendingRequests[_id], \"This request is not in my pending list.\");\n    delete pendingRequests[_id];\n    CallerContracInterface callerContractInstance;\n    callerContractInstance = CallerContracInterface(_callerAddress);\n    callerContractInstance.callback(_ethPrice,_id);\n    emit SetLatestEthPriceEvent(_ethPrice, _callerAddress);\n\n  }\n}\n",
  "sourcePath": "/Users/sandrarawat/EthPriceOracle/oracle/contracts/EthPriceOracle.sol",
  "compiler": {
    "name": "solc",
    "version": "0.8.0+commit.c7dfd78e.Emscripten.clang"
  },
  "schemaVersion": "3.4.2",
  "updatedAt": "2021-08-07T15:11:51.648Z",
  "networkType": "ethereum",
  "devdoc": {
    "kind": "dev",
    "methods": {
      "getRoleAdmin(bytes32)": {
        "details": "Returns the admin role that controls `role`. See {grantRole} and {revokeRole}. To change a role's admin, use {_setRoleAdmin}."
      },
      "grantRole(bytes32,address)": {
        "details": "Grants `role` to `account`. If `account` had not been already granted `role`, emits a {RoleGranted} event. Requirements: - the caller must have ``role``'s admin role."
      },
      "hasRole(bytes32,address)": {
        "details": "Returns `true` if `account` has been granted `role`."
      },
      "renounceRole(bytes32,address)": {
        "details": "Revokes `role` from the calling account. Roles are often managed via {grantRole} and {revokeRole}: this function's purpose is to provide a mechanism for accounts to lose their privileges if they are compromised (such as when a trusted device is misplaced). If the calling account had been granted `role`, emits a {RoleRevoked} event. Requirements: - the caller must be `account`."
      },
      "revokeRole(bytes32,address)": {
        "details": "Revokes `role` from `account`. If `account` had been granted `role`, emits a {RoleRevoked} event. Requirements: - the caller must have ``role``'s admin role."
      },
      "supportsInterface(bytes4)": {
        "details": "See {IERC165-supportsInterface}."
      }
    },
    "version": 1
  },
  "userdoc": {
    "kind": "user",
    "methods": {},
    "version": 1
  }
}